:100000000C942A000C9447000C9449000C9447006F
:100010000C9447000C9447000C9447000C94470044
:100020000C9447000C9447000C9447000C94470034
:100030000C9447000C9447000C9447000C94470024
:100040000C9447000C9447000C9447000C94470014
:100050000C94470011241FBECFE5D8E0DEBFCDBF12
:1000600010E0A0E6B0E0E4E4F5E002C005900D92F7
:10007000A238B107D9F720E0A2E8B0E001C01D9294
:10008000AA38B207E1F70E94F4010C94A0020C9484
:1000900000000F920FB60F921F9211240F931F931F
:1000A0002F933F934F935F936F937F938F939F9380
:1000B000AF93BF93EF938BB78F778BBF88E083BFEE
:1000C00084E083BF12BE81E58CBF10928200109243
:1000D000830010928400109285004DE050E061E0B2
:1000E00071E0E1E580B383FB882780F9862798B724
:1000F000926098BF22E025C090B393FB992790F9B6
:1001000096279817F9F080B383FB882780F9872713
:1001100021303105A9F48BB780688BBFEF91BF9177
:10012000AF919F918F917F916F915F914F913F918F
:100130002F911F910F911F900F900FBE0F90189548
:1001400021E030E008B600FCD7CF0091820010918A
:1001500083002091840030918500000F111F221F21
:10016000331F009382001093830020938400309308
:1001700085000091820010918300209184003091CD
:100180008500082B00938200109383002093840045
:100190003093850088B7826088BF4150510959F576
:1001A0008091820090918300A0918400B09185009D
:1001B0008F73809389008091820090918300A09139
:1001C0008400B09185008093870080918200909197
:1001D0008300A0918400B091850026E0B695A79594
:1001E000979587952A95D1F78F718093880081E044
:1001F0008093860090CF12BEECBF74CFC19A80FF6F
:100200000CC0C29A81FF0BC0C39A82FF0AC0C49A75
:1002100083FF09C0C59AC1980895C298F3CFC398C7
:10022000F4CFC498F5CFC598F6CFCF93C82F829559
:100230008F700E94FE008FED91E00197F1F700C0F2
:1002400000008C2F0E94FE008FED91E00197F1F7E6
:1002500000C00000CF910895C0980C941501C09A79
:100260000C941501B89AB99A87B38C6387BBC09870
:10027000C19818BA2FE782E392E021508040904065
:10028000E1F700C0000083E00E94FE008FE090E4F0
:100290000197F1F700C0000083E00E94FE008FE8A4
:1002A00091E00197F1F700C0000083E00E94FE009A
:1002B0008FE891E00197F1F700C0000082E00E9412
:1002C000FE008FED9EE20197F1F700C0000088E28A
:1002D0000E942C018FED9EE20197F1F700C0000013
:1002E00088E00E942C018FED9EE20197F1F700C09B
:1002F000000081E00E942C018FED9EE20197F1F752
:1003000000C0000086E00E942C018FED9EE2019764
:10031000F1F700C000008FE00E942C018FED9EE2FB
:100320000197F1F700C00000089581E00E942C01C0
:100330008FE19EE40197F1F700C00000089582E08C
:100340000E942C018FE19EE40197F1F700C00000AC
:100350000895CF93DF93EC018991811103C0DF9160
:10036000CF9108950E942F01F7CFCF93DF93CDB7A0
:10037000DEB72A970FB6F894DEBF0FBECDBF4AE0B6
:10038000BE016F5F7F4F0E946B020E94A9012A96F7
:100390000FB6F894DEBF0FBECDBFDF91CF910895A9
:1003A000662321F0805C613009F080E080680C9465
:1003B0002C0180E40E942C0180E00E942F0184E146
:1003C0000E942F018BE10E942F018EE10E942F01DC
:1003D0008BE10E942F018BE10E942F0184E10E949A
:1003E0002F0180E00C942F01D09811BA8BB7806850
:1003F0008BBF85B785BF0E9432010E94950178941A
:1004000080E690E00E94A901C0E0809186008823E8
:10041000E1F30E94950180918900803141F58FE6DA
:1004200090E00E94A90161E070E090E080E00E940D
:10043000D0018091890090E00E94B501C536A8F4F2
:10044000CF5F8FE790E00E94A9018C2F90E00E947F
:10045000B5012FEF83ED90E3215080409040E1F70C
:1004600000C0000010928600D0CFC4E6EACF809191
:100470008900813189F48FE690E00E94A90161E052
:1004800070E090E080E00E94D0018091890090E0CF
:100490000E94B501C150D5CF80918900853381F488
:1004A0008FE690E00E94A90161E070E090E080E0BA
:1004B0000E94D0018BB381708BBB80918900C6CF25
:1004C0008FE690E00E94A90161E070E090E080E09A
:1004D0000E94D001F2CFBB274A3031F4992322F495
:1004E000BDE2909581959F4F0C947702BB27FB014D
:1004F0005527AA27880F991FAA1FA41710F0A41B1D
:1005000083955051B9F7A05DAA3308F0A95DA19376
:10051000009779F7B111B1931192CB010C9490022D
:10052000DC01FC01672F71917723E1F7329704C05A
:100530007C916D9370836291AE17BF07C8F30895E5
:04054000F894FFCF5D
:1005440053656E64204952207369676E616C005371
:1005540069676E616C20646574656374656400200A
:02056400000095
:00000001FF
